{
  "_format": "hh-sol-artifact-1",
  "contractName": "SocialPlatform",
  "sourceName": "contracts/SocialPlatform.sol",
  "abi": [
    {
      "inputs": [],
      "stateMutability": "nonpayable",
      "type": "constructor"
    },
    {
      "anonymous": false,
      "inputs": [
        {
          "indexed": true,
          "internalType": "uint256",
          "name": "contentId",
          "type": "uint256"
        },
        {
          "indexed": true,
          "internalType": "address",
          "name": "creator",
          "type": "address"
        },
        {
          "indexed": false,
          "internalType": "uint256",
          "name": "price",
          "type": "uint256"
        }
      ],
      "name": "ContentCreated",
      "type": "event"
    },
    {
      "anonymous": false,
      "inputs": [
        {
          "indexed": true,
          "internalType": "uint256",
          "name": "contentId",
          "type": "uint256"
        },
        {
          "indexed": true,
          "internalType": "address",
          "name": "buyer",
          "type": "address"
        },
        {
          "indexed": false,
          "internalType": "uint256",
          "name": "price",
          "type": "uint256"
        }
      ],
      "name": "ContentPurchased",
      "type": "event"
    },
    {
      "anonymous": false,
      "inputs": [
        {
          "indexed": true,
          "internalType": "address",
          "name": "creator",
          "type": "address"
        },
        {
          "indexed": false,
          "internalType": "uint256",
          "name": "amount",
          "type": "uint256"
        }
      ],
      "name": "EarningsWithdrawn",
      "type": "event"
    },
    {
      "anonymous": false,
      "inputs": [
        {
          "indexed": true,
          "internalType": "address",
          "name": "previousOwner",
          "type": "address"
        },
        {
          "indexed": true,
          "internalType": "address",
          "name": "newOwner",
          "type": "address"
        }
      ],
      "name": "OwnershipTransferred",
      "type": "event"
    },
    {
      "anonymous": false,
      "inputs": [
        {
          "indexed": true,
          "internalType": "uint256",
          "name": "storyId",
          "type": "uint256"
        },
        {
          "indexed": true,
          "internalType": "address",
          "name": "creator",
          "type": "address"
        }
      ],
      "name": "StoryCreated",
      "type": "event"
    },
    {
      "anonymous": false,
      "inputs": [
        {
          "indexed": true,
          "internalType": "address",
          "name": "user",
          "type": "address"
        }
      ],
      "name": "UserBecameCreator",
      "type": "event"
    },
    {
      "anonymous": false,
      "inputs": [
        {
          "indexed": true,
          "internalType": "address",
          "name": "follower",
          "type": "address"
        },
        {
          "indexed": true,
          "internalType": "address",
          "name": "following",
          "type": "address"
        }
      ],
      "name": "UserFollowed",
      "type": "event"
    },
    {
      "anonymous": false,
      "inputs": [
        {
          "indexed": true,
          "internalType": "address",
          "name": "user",
          "type": "address"
        },
        {
          "indexed": false,
          "internalType": "string",
          "name": "username",
          "type": "string"
        }
      ],
      "name": "UserRegistered",
      "type": "event"
    },
    {
      "anonymous": false,
      "inputs": [
        {
          "indexed": true,
          "internalType": "address",
          "name": "follower",
          "type": "address"
        },
        {
          "indexed": true,
          "internalType": "address",
          "name": "following",
          "type": "address"
        }
      ],
      "name": "UserUnfollowed",
      "type": "event"
    },
    {
      "inputs": [],
      "name": "FEE_DENOMINATOR",
      "outputs": [
        {
          "internalType": "uint256",
          "name": "",
          "type": "uint256"
        }
      ],
      "stateMutability": "view",
      "type": "function"
    },
    {
      "inputs": [],
      "name": "becomeCreator",
      "outputs": [],
      "stateMutability": "nonpayable",
      "type": "function"
    },
    {
      "inputs": [
        {
          "internalType": "uint256",
          "name": "_contentId",
          "type": "uint256"
        }
      ],
      "name": "buyContent",
      "outputs": [],
      "stateMutability": "payable",
      "type": "function"
    },
    {
      "inputs": [
        {
          "internalType": "address",
          "name": "",
          "type": "address"
        },
        {
          "internalType": "uint256",
          "name": "",
          "type": "uint256"
        }
      ],
      "name": "contentAccess",
      "outputs": [
        {
          "internalType": "bool",
          "name": "",
          "type": "bool"
        }
      ],
      "stateMutability": "view",
      "type": "function"
    },
    {
      "inputs": [],
      "name": "contentCounter",
      "outputs": [
        {
          "internalType": "uint256",
          "name": "",
          "type": "uint256"
        }
      ],
      "stateMutability": "view",
      "type": "function"
    },
    {
      "inputs": [
        {
          "internalType": "uint256",
          "name": "",
          "type": "uint256"
        }
      ],
      "name": "contents",
      "outputs": [
        {
          "internalType": "address",
          "name": "creator",
          "type": "address"
        },
        {
          "internalType": "string",
          "name": "contentHash",
          "type": "string"
        },
        {
          "internalType": "uint256",
          "name": "price",
          "type": "uint256"
        },
        {
          "internalType": "bool",
          "name": "isPaid",
          "type": "bool"
        },
        {
          "internalType": "uint256",
          "name": "timestamp",
          "type": "uint256"
        },
        {
          "internalType": "uint256",
          "name": "purchaseCount",
          "type": "uint256"
        }
      ],
      "stateMutability": "view",
      "type": "function"
    },
    {
      "inputs": [
        {
          "internalType": "string",
          "name": "_contentHash",
          "type": "string"
        },
        {
          "internalType": "uint256",
          "name": "_price",
          "type": "uint256"
        },
        {
          "internalType": "bool",
          "name": "_isPaid",
          "type": "bool"
        }
      ],
      "name": "createContent",
      "outputs": [],
      "stateMutability": "nonpayable",
      "type": "function"
    },
    {
      "inputs": [
        {
          "internalType": "string",
          "name": "_contentHash",
          "type": "string"
        }
      ],
      "name": "createStory",
      "outputs": [],
      "stateMutability": "nonpayable",
      "type": "function"
    },
    {
      "inputs": [],
      "name": "emergencyWithdraw",
      "outputs": [],
      "stateMutability": "nonpayable",
      "type": "function"
    },
    {
      "inputs": [
        {
          "internalType": "address",
          "name": "_userToFollow",
          "type": "address"
        }
      ],
      "name": "followUser",
      "outputs": [],
      "stateMutability": "nonpayable",
      "type": "function"
    },
    {
      "inputs": [
        {
          "internalType": "address",
          "name": "",
          "type": "address"
        },
        {
          "internalType": "address",
          "name": "",
          "type": "address"
        }
      ],
      "name": "following",
      "outputs": [
        {
          "internalType": "bool",
          "name": "",
          "type": "bool"
        }
      ],
      "stateMutability": "view",
      "type": "function"
    },
    {
      "inputs": [
        {
          "internalType": "address",
          "name": "_user",
          "type": "address"
        }
      ],
      "name": "getActiveStories",
      "outputs": [
        {
          "internalType": "uint256[]",
          "name": "",
          "type": "uint256[]"
        }
      ],
      "stateMutability": "view",
      "type": "function"
    },
    {
      "inputs": [
        {
          "internalType": "uint256",
          "name": "_contentId",
          "type": "uint256"
        }
      ],
      "name": "getContent",
      "outputs": [
        {
          "components": [
            {
              "internalType": "address",
              "name": "creator",
              "type": "address"
            },
            {
              "internalType": "string",
              "name": "contentHash",
              "type": "string"
            },
            {
              "internalType": "uint256",
              "name": "price",
              "type": "uint256"
            },
            {
              "internalType": "bool",
              "name": "isPaid",
              "type": "bool"
            },
            {
              "internalType": "uint256",
              "name": "timestamp",
              "type": "uint256"
            },
            {
              "internalType": "uint256",
              "name": "purchaseCount",
              "type": "uint256"
            }
          ],
          "internalType": "struct SocialPlatform.Content",
          "name": "",
          "type": "tuple"
        }
      ],
      "stateMutability": "view",
      "type": "function"
    },
    {
      "inputs": [
        {
          "internalType": "address",
          "name": "_user",
          "type": "address"
        },
        {
          "internalType": "uint256",
          "name": "_contentId",
          "type": "uint256"
        }
      ],
      "name": "getContentAccess",
      "outputs": [
        {
          "internalType": "bool",
          "name": "",
          "type": "bool"
        }
      ],
      "stateMutability": "view",
      "type": "function"
    },
    {
      "inputs": [
        {
          "internalType": "uint256",
          "name": "_storyId",
          "type": "uint256"
        }
      ],
      "name": "getStory",
      "outputs": [
        {
          "components": [
            {
              "internalType": "address",
              "name": "creator",
              "type": "address"
            },
            {
              "internalType": "string",
              "name": "contentHash",
              "type": "string"
            },
            {
              "internalType": "uint256",
              "name": "timestamp",
              "type": "uint256"
            },
            {
              "internalType": "uint256",
              "name": "expiryTime",
              "type": "uint256"
            }
          ],
          "internalType": "struct SocialPlatform.Story",
          "name": "",
          "type": "tuple"
        }
      ],
      "stateMutability": "view",
      "type": "function"
    },
    {
      "inputs": [
        {
          "internalType": "address",
          "name": "_userAddress",
          "type": "address"
        }
      ],
      "name": "getUser",
      "outputs": [
        {
          "components": [
            {
              "internalType": "string",
              "name": "username",
              "type": "string"
            },
            {
              "internalType": "string",
              "name": "avatarHash",
              "type": "string"
            },
            {
              "internalType": "string",
              "name": "bio",
              "type": "string"
            },
            {
              "internalType": "bool",
              "name": "isCreator",
              "type": "bool"
            },
            {
              "internalType": "uint256",
              "name": "followersCount",
              "type": "uint256"
            },
            {
              "internalType": "uint256",
              "name": "followingCount",
              "type": "uint256"
            },
            {
              "internalType": "uint256",
              "name": "totalEarnings",
              "type": "uint256"
            },
            {
              "internalType": "bool",
              "name": "exists",
              "type": "bool"
            }
          ],
          "internalType": "struct SocialPlatform.User",
          "name": "",
          "type": "tuple"
        }
      ],
      "stateMutability": "view",
      "type": "function"
    },
    {
      "inputs": [
        {
          "internalType": "address",
          "name": "_user",
          "type": "address"
        }
      ],
      "name": "getUserContents",
      "outputs": [
        {
          "internalType": "uint256[]",
          "name": "",
          "type": "uint256[]"
        }
      ],
      "stateMutability": "view",
      "type": "function"
    },
    {
      "inputs": [
        {
          "internalType": "address",
          "name": "_user",
          "type": "address"
        }
      ],
      "name": "getUserStories",
      "outputs": [
        {
          "internalType": "uint256[]",
          "name": "",
          "type": "uint256[]"
        }
      ],
      "stateMutability": "view",
      "type": "function"
    },
    {
      "inputs": [
        {
          "internalType": "address",
          "name": "_follower",
          "type": "address"
        },
        {
          "internalType": "address",
          "name": "_following",
          "type": "address"
        }
      ],
      "name": "isFollowing",
      "outputs": [
        {
          "internalType": "bool",
          "name": "",
          "type": "bool"
        }
      ],
      "stateMutability": "view",
      "type": "function"
    },
    {
      "inputs": [],
      "name": "owner",
      "outputs": [
        {
          "internalType": "address",
          "name": "",
          "type": "address"
        }
      ],
      "stateMutability": "view",
      "type": "function"
    },
    {
      "inputs": [],
      "name": "platformFee",
      "outputs": [
        {
          "internalType": "uint256",
          "name": "",
          "type": "uint256"
        }
      ],
      "stateMutability": "view",
      "type": "function"
    },
    {
      "inputs": [
        {
          "internalType": "string",
          "name": "_username",
          "type": "string"
        },
        {
          "internalType": "string",
          "name": "_avatarHash",
          "type": "string"
        },
        {
          "internalType": "string",
          "name": "_bio",
          "type": "string"
        }
      ],
      "name": "registerUser",
      "outputs": [],
      "stateMutability": "nonpayable",
      "type": "function"
    },
    {
      "inputs": [],
      "name": "renounceOwnership",
      "outputs": [],
      "stateMutability": "nonpayable",
      "type": "function"
    },
    {
      "inputs": [
        {
          "internalType": "uint256",
          "name": "_fee",
          "type": "uint256"
        }
      ],
      "name": "setPlatformFee",
      "outputs": [],
      "stateMutability": "nonpayable",
      "type": "function"
    },
    {
      "inputs": [
        {
          "internalType": "uint256",
          "name": "",
          "type": "uint256"
        }
      ],
      "name": "stories",
      "outputs": [
        {
          "internalType": "address",
          "name": "creator",
          "type": "address"
        },
        {
          "internalType": "string",
          "name": "contentHash",
          "type": "string"
        },
        {
          "internalType": "uint256",
          "name": "timestamp",
          "type": "uint256"
        },
        {
          "internalType": "uint256",
          "name": "expiryTime",
          "type": "uint256"
        }
      ],
      "stateMutability": "view",
      "type": "function"
    },
    {
      "inputs": [],
      "name": "storyCounter",
      "outputs": [
        {
          "internalType": "uint256",
          "name": "",
          "type": "uint256"
        }
      ],
      "stateMutability": "view",
      "type": "function"
    },
    {
      "inputs": [
        {
          "internalType": "address",
          "name": "newOwner",
          "type": "address"
        }
      ],
      "name": "transferOwnership",
      "outputs": [],
      "stateMutability": "nonpayable",
      "type": "function"
    },
    {
      "inputs": [
        {
          "internalType": "address",
          "name": "_userToUnfollow",
          "type": "address"
        }
      ],
      "name": "unfollowUser",
      "outputs": [],
      "stateMutability": "nonpayable",
      "type": "function"
    },
    {
      "inputs": [
        {
          "internalType": "string",
          "name": "_username",
          "type": "string"
        },
        {
          "internalType": "string",
          "name": "_avatarHash",
          "type": "string"
        },
        {
          "internalType": "string",
          "name": "_bio",
          "type": "string"
        }
      ],
      "name": "updateProfile",
      "outputs": [],
      "stateMutability": "nonpayable",
      "type": "function"
    },
    {
      "inputs": [
        {
          "internalType": "address",
          "name": "",
          "type": "address"
        },
        {
          "internalType": "uint256",
          "name": "",
          "type": "uint256"
        }
      ],
      "name": "userContents",
      "outputs": [
        {
          "internalType": "uint256",
          "name": "",
          "type": "uint256"
        }
      ],
      "stateMutability": "view",
      "type": "function"
    },
    {
      "inputs": [
        {
          "internalType": "address",
          "name": "",
          "type": "address"
        },
        {
          "internalType": "uint256",
          "name": "",
          "type": "uint256"
        }
      ],
      "name": "userStories",
      "outputs": [
        {
          "internalType": "uint256",
          "name": "",
          "type": "uint256"
        }
      ],
      "stateMutability": "view",
      "type": "function"
    },
    {
      "inputs": [
        {
          "internalType": "address",
          "name": "",
          "type": "address"
        }
      ],
      "name": "users",
      "outputs": [
        {
          "internalType": "string",
          "name": "username",
          "type": "string"
        },
        {
          "internalType": "string",
          "name": "avatarHash",
          "type": "string"
        },
        {
          "internalType": "string",
          "name": "bio",
          "type": "string"
        },
        {
          "internalType": "bool",
          "name": "isCreator",
          "type": "bool"
        },
        {
          "internalType": "uint256",
          "name": "followersCount",
          "type": "uint256"
        },
        {
          "internalType": "uint256",
          "name": "followingCount",
          "type": "uint256"
        },
        {
          "internalType": "uint256",
          "name": "totalEarnings",
          "type": "uint256"
        },
        {
          "internalType": "bool",
          "name": "exists",
          "type": "bool"
        }
      ],
      "stateMutability": "view",
      "type": "function"
    },
    {
      "inputs": [],
      "name": "withdrawEarnings",
      "outputs": [],
      "stateMutability": "nonpayable",
      "type": "function"
    },
    {
      "inputs": [],
      "name": "withdrawPlatformFees",
      "outputs": [],
      "stateMutability": "nonpayable",
      "type": "function"
    }
  ],
  "bytecode": "0x608060405260c8600b5534801561001557600080fd5b50600160005561002433610029565b61007b565b600180546001600160a01b038381166001600160a01b0319831681179093556040519116919082907f8be0079c531659141344cd1fd0a4f28419497f9722a3daafe3b4186f6b6457e090600090a35050565b61298e8061008a6000396000f3fe6080604052600436106101f95760003560e01c80639d9f92d81161010d578063d65148c3116100a0578063e6a9aba31161006f578063e6a9aba31461062c578063eb421ed614610642578063f107cfcb14610657578063f2fde38b14610677578063f5909bf41461069757600080fd5b8063d65148c3146105e3578063d6cfa44014610603578063d73792a914610616578063db2e21bc146105ae57600080fd5b8063b73c6ce9116100dc578063b73c6ce91461055e578063ce9ae00114610573578063d0b7830b146105ae578063d637dcfa146105c357600080fd5b80639d9f92d8146104b8578063a70806f7146104d8578063a87430ba146104f8578063b5ecf9121461052c57600080fd5b80634a5bf21b116101905780638da5cb5b1161015f5780638da5cb5b146103da5780638dc8fb931461040257806399ec3a421461042f5780639c9a596e146104785780639d356b2a1461049857600080fd5b80634a5bf21b146103485780636f77926b14610368578063715018a6146103955780638a3b6ab8146103aa57600080fd5b80631cabe29c116101cc5780631cabe29c146102a357806326232a2e146102d35780632c704e3d146102f757806334d2d7ca1461030d57600080fd5b806303cf950f146101fe5780630b7ad54c146102345780631105a5eb1461026157806312e8e2c314610283575b600080fd5b34801561020a57600080fd5b5061021e6102193660046121c6565b6106b7565b60405161022b9190612225565b60405180910390f35b34801561024057600080fd5b5061025461024f3660046121c6565b6107c4565b60405161022b9190612273565b34801561026d57600080fd5b5061028161027c36600461237a565b6108fa565b005b34801561028f57600080fd5b5061028161029e3660046121c6565b610997565b3480156102af57600080fd5b506102c36102be36600461241e565b6109ee565b604051901515815260200161022b565b3480156102df57600080fd5b506102e9600b5481565b60405190815260200161022b565b34801561030357600080fd5b506102e9600a5481565b34801561031957600080fd5b506102c361032836600461241e565b600560209081526000928352604080842090915290825290205460ff1681565b34801561035457600080fd5b506102e961036336600461241e565b610a3e565b34801561037457600080fd5b50610388610383366004612448565b610a6f565b60405161022b919061246a565b3480156103a157600080fd5b50610281610cd9565b3480156103b657600080fd5b506103ca6103c53660046121c6565b610ced565b60405161022b9493929190612516565b3480156103e657600080fd5b506001546040516001600160a01b03909116815260200161022b565b34801561040e57600080fd5b5061042261041d366004612448565b610da8565b60405161022b919061254d565b34801561043b57600080fd5b506102c361044a366004612591565b6001600160a01b03918216600090815260046020908152604080832093909416825291909152205460ff1690565b34801561048457600080fd5b50610422610493366004612448565b610e14565b3480156104a457600080fd5b506102e96104b336600461241e565b610fcc565b3480156104c457600080fd5b506102816104d33660046125c4565b610fe8565b3480156104e457600080fd5b506102816104f3366004612448565b611117565b34801561050457600080fd5b50610518610513366004612448565b611310565b60405161022b989796959493929190612601565b34801561053857600080fd5b5061054c6105473660046121c6565b6114f0565b60405161022b9695949392919061266b565b34801561056a57600080fd5b506102816115bc565b34801561057f57600080fd5b506102c361058e366004612591565b600460209081526000928352604080842090915290825290205460ff1681565b3480156105ba57600080fd5b5061028161173c565b3480156105cf57600080fd5b506102816105de36600461237a565b611780565b3480156105ef57600080fd5b506102816105fe3660046126b4565b611945565b6102816106113660046121c6565b611b18565b34801561062257600080fd5b506102e961271081565b34801561063857600080fd5b506102e960095481565b34801561064e57600080fd5b50610281611dde565b34801561066357600080fd5b50610281610672366004612448565b611eac565b34801561068357600080fd5b50610281610692366004612448565b611fe1565b3480156106a357600080fd5b506104226106b2366004612448565b612057565b6106eb604051806080016040528060006001600160a01b031681526020016060815260200160008152602001600081525090565b60008281526008602090815260409182902082516080810190935280546001600160a01b03168352600181018054919284019161072790612714565b80601f016020809104026020016040519081016040528092919081815260200182805461075390612714565b80156107a05780601f10610775576101008083540402835291602001916107a0565b820191906000526020600020905b81548152906001019060200180831161078357829003601f168201915b50505050508152602001600282015481526020016003820154815250509050919050565b6108086040518060c0016040528060006001600160a01b03168152602001606081526020016000815260200160001515815260200160008152602001600081525090565b600082815260036020908152604091829020825160c0810190935280546001600160a01b03168352600181018054919284019161084490612714565b80601f016020809104026020016040519081016040528092919081815260200182805461087090612714565b80156108bd5780601f10610892576101008083540402835291602001916108bd565b820191906000526020600020905b8154815290600101906020018083116108a057829003601f168201915b505050918352505060028201546020820152600382015460ff16151560408201526004820154606082015260059091015460809091015292915050565b3360009081526002602052604090206007015460ff166109355760405162461bcd60e51b815260040161092c9061274e565b60405180910390fd5b8251156109575733600090815260026020526040902061095584826127ca565b505b33600090815260026020526040902060010161097383826127ca565b503360009081526002602081905260409091200161099182826127ca565b50505050565b61099f6120c1565b6103e88111156109e95760405162461bcd60e51b81526020600482015260156024820152744665652063616e6e6f74206578636565642031302560581b604482015260640161092c565b600b55565b60008181526003602081905260408220015460ff16610a0f57506001610a38565b506001600160a01b038216600090815260056020908152604080832084845290915290205460ff165b92915050565b60076020528160005260406000208181548110610a5a57600080fd5b90600052602060002001600091509150505481565b610abb6040518061010001604052806060815260200160608152602001606081526020016000151581526020016000815260200160008152602001600081526020016000151581525090565b6001600160a01b0382166000908152600260205260409081902081516101008101909252805482908290610aee90612714565b80601f0160208091040260200160405190810160405280929190818152602001828054610b1a90612714565b8015610b675780601f10610b3c57610100808354040283529160200191610b67565b820191906000526020600020905b815481529060010190602001808311610b4a57829003601f168201915b50505050508152602001600182018054610b8090612714565b80601f0160208091040260200160405190810160405280929190818152602001828054610bac90612714565b8015610bf95780601f10610bce57610100808354040283529160200191610bf9565b820191906000526020600020905b815481529060010190602001808311610bdc57829003601f168201915b50505050508152602001600282018054610c1290612714565b80601f0160208091040260200160405190810160405280929190818152602001828054610c3e90612714565b8015610c8b5780601f10610c6057610100808354040283529160200191610c8b565b820191906000526020600020905b815481529060010190602001808311610c6e57829003601f168201915b5050509183525050600382015460ff90811615156020830152600483015460408301526005830154606083015260068301546080830152600790920154909116151560a09091015292915050565b610ce16120c1565b610ceb600061211b565b565b600860205260009081526040902080546001820180546001600160a01b039092169291610d1990612714565b80601f0160208091040260200160405190810160405280929190818152602001828054610d4590612714565b8015610d925780601f10610d6757610100808354040283529160200191610d92565b820191906000526020600020905b815481529060010190602001808311610d7557829003601f168201915b5050505050908060020154908060030154905084565b6001600160a01b038116600090815260066020908152604091829020805483518184028101840190945280845260609392830182828015610e0857602002820191906000526020600020905b815481526020019060010190808311610df4575b50505050509050919050565b6001600160a01b0381166000908152600760209081526040808320805482518185028101850190935280835260609493830182828015610e7357602002820191906000526020600020905b815481526020019060010190808311610e5f575b505050505090506000805b8251811015610ede574260086000858481518110610e9e57610e9e61288a565b60200260200101518152602001908152602001600020600301541115610ecc5781610ec8816128b6565b9250505b80610ed6816128b6565b915050610e7e565b5060008167ffffffffffffffff811115610efa57610efa6122d7565b604051908082528060200260200182016040528015610f23578160200160208202803683370190505b5090506000805b8451811015610fc1574260086000878481518110610f4a57610f4a61288a565b60200260200101518152602001908152602001600020600301541115610faf57848181518110610f7c57610f7c61288a565b6020026020010151838381518110610f9657610f9661288a565b602090810291909101015281610fab816128b6565b9250505b80610fb9816128b6565b915050610f2a565b509095945050505050565b60066020528160005260406000208181548110610a5a57600080fd5b3360009081526002602052604090206007015460ff1661101a5760405162461bcd60e51b815260040161092c9061274e565b600a805490600061102a836128b6565b91905055506040518060800160405280336001600160a01b03168152602001828152602001428152602001426201518061106491906128cf565b9052600a546000908152600860209081526040909120825181546001600160a01b0319166001600160a01b039091161781559082015160018201906110a990826127ca565b50604082810151600283015560609092015160039091015533600081815260076020908152838220600a80548254600181018455928552928420909101919091555492519192917fb9715fd1ea750a8d44b6614f3e66f810c819a0cd59e3c85427489a9d710f628e9190a350565b3360009081526002602052604090206007015460ff166111495760405162461bcd60e51b815260040161092c9061274e565b6001600160a01b03811660009081526002602052604090206007015460ff166111b45760405162461bcd60e51b815260206004820152601a60248201527f5461726765742075736572206e6f742072656769737465726564000000000000604482015260640161092c565b6001600160a01b03811633036112055760405162461bcd60e51b815260206004820152601660248201527521b0b73737ba103337b63637bb903cb7bab939b2b63360511b604482015260640161092c565b3360009081526004602090815260408083206001600160a01b038516845290915290205460ff161561126d5760405162461bcd60e51b8152602060048201526011602482015270416c726561647920666f6c6c6f77696e6760781b604482015260640161092c565b3360009081526004602081815260408084206001600160a01b03861685528252808420805460ff1916600117905560029091528220018054916112af836128b6565b90915550503360009081526002602052604081206005018054916112d2836128b6565b90915550506040516001600160a01b0382169033907f30b3435b456f45779984ddfa456115ee4c20d9e446979b1b9e90dbb7e12b90b790600090a350565b60026020526000908152604090208054819061132b90612714565b80601f016020809104026020016040519081016040528092919081815260200182805461135790612714565b80156113a45780601f10611379576101008083540402835291602001916113a4565b820191906000526020600020905b81548152906001019060200180831161138757829003601f168201915b5050505050908060010180546113b990612714565b80601f01602080910402602001604051908101604052809291908181526020018280546113e590612714565b80156114325780601f1061140757610100808354040283529160200191611432565b820191906000526020600020905b81548152906001019060200180831161141557829003601f168201915b50505050509080600201805461144790612714565b80601f016020809104026020016040519081016040528092919081815260200182805461147390612714565b80156114c05780601f10611495576101008083540402835291602001916114c0565b820191906000526020600020905b8154815290600101906020018083116114a357829003601f168201915b5050506003840154600485015460058601546006870154600790970154959660ff93841696929550909350911688565b600360205260009081526040902080546001820180546001600160a01b03909216929161151c90612714565b80601f016020809104026020016040519081016040528092919081815260200182805461154890612714565b80156115955780601f1061156a57610100808354040283529160200191611595565b820191906000526020600020905b81548152906001019060200180831161157857829003601f168201915b505050506002830154600384015460048501546005909501549394919360ff909116925086565b6115c461216d565b3360009081526002602052604090206007015460ff166115f65760405162461bcd60e51b815260040161092c9061274e565b3360009081526002602052604090206003015460ff166116585760405162461bcd60e51b815260206004820152601a60248201527f4f6e6c792063726561746f72732063616e207769746864726177000000000000604482015260640161092c565b336000908152600260205260409020600601546116b75760405162461bcd60e51b815260206004820152601760248201527f4e6f206561726e696e677320746f207769746864726177000000000000000000604482015260640161092c565b33600081815260026020526040808220600601805490839055905190929183156108fc02918491818181858888f193505050501580156116fb573d6000803e3d6000fd5b5060405181815233907f48dc35af7b45e2a81fffad55f6e2fafacdb1d3d0d50d24ebdc16324f5ba757f19060200160405180910390a250610ceb6001600055565b6117446120c1565b6001546040516001600160a01b03909116904780156108fc02916000818181858888f1935050505015801561177d573d6000803e3d6000fd5b50565b3360009081526002602052604090206007015460ff16156117e35760405162461bcd60e51b815260206004820152601760248201527f5573657220616c72656164792072656769737465726564000000000000000000604482015260640161092c565b60008351116118345760405162461bcd60e51b815260206004820152601860248201527f557365726e616d652063616e6e6f7420626520656d7074790000000000000000604482015260640161092c565b604080516101008101825284815260208082018590528183018490526000606083018190526080830181905260a0830181905260c08301819052600160e08401523381526002909152919091208151819061188f90826127ca565b50602082015160018201906118a490826127ca565b50604082015160028201906118b990826127ca565b50606082015160038201805491151560ff199283161790556080830151600483015560a0830151600583015560c0830151600683015560e090920151600790910180549115159190921617905560405133907f48cac28ad4dc618e15f4c2dd5e97751182f166de97b25618318b2112aa951a2f906119389086906128e2565b60405180910390a2505050565b3360009081526002602052604090206007015460ff166119775760405162461bcd60e51b815260040161092c9061274e565b3360009081526002602052604090206003015460ff166119d95760405162461bcd60e51b815260206004820181905260248201527f4f6e6c792063726561746f72732063616e2063726561746520636f6e74656e74604482015260640161092c565b600980549060006119e9836128b6565b90915550506040805160c08101825233815260208082018681528284018690528415156060840152426080840152600060a0840181905260095481526003909252929020815181546001600160a01b0319166001600160a01b0390911617815591519091906001820190611a5d90826127ca565b506040828101516002830155606083015160038301805491151560ff199283161790556080840151600484015560a090930151600592830155336000818152600660209081528382206009805482546001818101855593865284862001558484529582528483208654845290915290839020805490951617909355905490517f2344d0e4d33c59dfc9275ae9cecc6eaa919eb62e9584a905caa648b662c1da9390611b0b9086815260200190565b60405180910390a3505050565b611b2061216d565b3360009081526002602052604090206007015460ff16611b525760405162461bcd60e51b815260040161092c9061274e565b600081118015611b6457506009548111155b611ba55760405162461bcd60e51b8152602060048201526012602482015271125b9d985b1a590818dbdb9d195b9d08125160721b604482015260640161092c565b33600090815260056020908152604080832084845290915290205460ff1615611c045760405162461bcd60e51b8152602060048201526011602482015270105b1c9958591e481c1d5c98da185cd959607a1b604482015260640161092c565b60008181526003602081905260409091209081015460ff16611c5a5760405162461bcd60e51b815260206004820152600f60248201526e436f6e74656e74206973206672656560881b604482015260640161092c565b8060020154341015611ca55760405162461bcd60e51b8152602060048201526014602482015273125b9cdd59999a58da595b9d081c185e5b595b9d60621b604482015260640161092c565b3360009081526005602081815260408084208685529091528220805460ff191660011790558201805491611cd8836128b6565b91905055506000612710600b5434611cf091906128f5565b611cfa919061290c565b90506000611d08823461292e565b83546001600160a01b0316600090815260026020526040812060060180549293508392909190611d399084906128cf565b90915550506002830154341115611d8957600283015433906108fc90611d5f903461292e565b6040518115909202916000818181858888f19350505050158015611d87573d6000803e3d6000fd5b505b336001600160a01b0316847fc11917d17603adca99ae03c49747f035153321e0f1b1550d66ce71f0c7f4d0cd8560020154604051611dc991815260200190565b60405180910390a350505061177d6001600055565b3360009081526002602052604090206007015460ff16611e105760405162461bcd60e51b815260040161092c9061274e565b3360009081526002602052604090206003015460ff1615611e675760405162461bcd60e51b815260206004820152601160248201527020b63932b0b23c90309031b932b0ba37b960791b604482015260640161092c565b33600081815260026020526040808220600301805460ff19166001179055517f38e7f0505fe65428368479d41bbcaacb89eaaaecfec55a98de1db0daf6a947729190a2565b3360009081526002602052604090206007015460ff16611ede5760405162461bcd60e51b815260040161092c9061274e565b3360009081526004602090815260408083206001600160a01b038516845290915290205460ff16611f415760405162461bcd60e51b815260206004820152600d60248201526c4e6f7420666f6c6c6f77696e6760981b604482015260640161092c565b3360009081526004602081815260408084206001600160a01b03861685528252808420805460ff191690556002909152822001805491611f8083612941565b9091555050336000908152600260205260408120600501805491611fa383612941565b90915550506040516001600160a01b0382169033907fe7339343c6edff57f2d15278c419523844cea30ae5ee2146aa22cb9e3107dab790600090a350565b611fe96120c1565b6001600160a01b03811661204e5760405162461bcd60e51b815260206004820152602660248201527f4f776e61626c653a206e6577206f776e657220697320746865207a65726f206160448201526564647265737360d01b606482015260840161092c565b61177d8161211b565b6001600160a01b038116600090815260076020908152604091829020805483518184028101840190945280845260609392830182828015610e085760200282019190600052602060002090815481526020019060010190808311610df45750505050509050919050565b6001546001600160a01b03163314610ceb5760405162461bcd60e51b815260206004820181905260248201527f4f776e61626c653a2063616c6c6572206973206e6f7420746865206f776e6572604482015260640161092c565b600180546001600160a01b038381166001600160a01b0319831681179093556040519116919082907f8be0079c531659141344cd1fd0a4f28419497f9722a3daafe3b4186f6b6457e090600090a35050565b6002600054036121bf5760405162461bcd60e51b815260206004820152601f60248201527f5265656e7472616e637947756172643a207265656e7472616e742063616c6c00604482015260640161092c565b6002600055565b6000602082840312156121d857600080fd5b5035919050565b6000815180845260005b81811015612205576020818501810151868301820152016121e9565b506000602082860101526020601f19601f83011685010191505092915050565b602080825282516001600160a01b0316828201528201516080604083015260009061225360a08401826121df565b905060408401516060840152606084015160808401528091505092915050565b602080825282516001600160a01b03168282015282015160c060408301526000906122a160e08401826121df565b905060408401516060840152606084015115156080840152608084015160a084015260a084015160c08401528091505092915050565b634e487b7160e01b600052604160045260246000fd5b600082601f8301126122fe57600080fd5b813567ffffffffffffffff80821115612319576123196122d7565b604051601f8301601f19908116603f01168101908282118183101715612341576123416122d7565b8160405283815286602085880101111561235a57600080fd5b836020870160208301376000602085830101528094505050505092915050565b60008060006060848603121561238f57600080fd5b833567ffffffffffffffff808211156123a757600080fd5b6123b3878388016122ed565b945060208601359150808211156123c957600080fd5b6123d5878388016122ed565b935060408601359150808211156123eb57600080fd5b506123f8868287016122ed565b9150509250925092565b80356001600160a01b038116811461241957600080fd5b919050565b6000806040838503121561243157600080fd5b61243a83612402565b946020939093013593505050565b60006020828403121561245a57600080fd5b61246382612402565b9392505050565b60208152600082516101008060208501526124896101208501836121df565b91506020850151601f19808685030160408701526124a784836121df565b93506040870151915080868503016060870152506124c583826121df565b92505060608501516124db608086018215159052565b50608085015160a085015260a085015160c085015260c085015160e085015260e085015161250c8286018215159052565b5090949350505050565b6001600160a01b038516815260806020820181905260009061253a908301866121df565b6040830194909452506060015292915050565b6020808252825182820181905260009190848201906040850190845b8181101561258557835183529284019291840191600101612569565b50909695505050505050565b600080604083850312156125a457600080fd5b6125ad83612402565b91506125bb60208401612402565b90509250929050565b6000602082840312156125d657600080fd5b813567ffffffffffffffff8111156125ed57600080fd5b6125f9848285016122ed565b949350505050565b60006101008083526126158184018c6121df565b90508281036020840152612629818b6121df565b9050828103604084015261263d818a6121df565b97151560608401525050608081019490945260a084019290925260c0830152151560e0909101529392505050565b6001600160a01b038716815260c06020820181905260009061268f908301886121df565b6040830196909652509215156060840152608083019190915260a09091015292915050565b6000806000606084860312156126c957600080fd5b833567ffffffffffffffff8111156126e057600080fd5b6126ec868287016122ed565b935050602084013591506040840135801515811461270957600080fd5b809150509250925092565b600181811c9082168061272857607f821691505b60208210810361274857634e487b7160e01b600052602260045260246000fd5b50919050565b602080825260139082015272155cd95c881b9bdd081c9959da5cdd195c9959606a1b604082015260600190565b601f8211156127c557600081815260208120601f850160051c810160208610156127a25750805b601f850160051c820191505b818110156127c1578281556001016127ae565b5050505b505050565b815167ffffffffffffffff8111156127e4576127e46122d7565b6127f8816127f28454612714565b8461277b565b602080601f83116001811461282d57600084156128155750858301515b600019600386901b1c1916600185901b1785556127c1565b600085815260208120601f198616915b8281101561285c5788860151825594840194600190910190840161283d565b508582101561287a5787850151600019600388901b60f8161c191681555b5050505050600190811b01905550565b634e487b7160e01b600052603260045260246000fd5b634e487b7160e01b600052601160045260246000fd5b6000600182016128c8576128c86128a0565b5060010190565b80820180821115610a3857610a386128a0565b60208152600061246360208301846121df565b8082028115828204841417610a3857610a386128a0565b60008261292957634e487b7160e01b600052601260045260246000fd5b500490565b81810381811115610a3857610a386128a0565b600081612950576129506128a0565b50600019019056fea264697066735822122046b5c1a6bc4971ec7bdf90def35a5297bbc8b0f98d30ab943a72b7658f130f7d64736f6c63430008130033",
  "linkReferences": {},
  "deployedLinkReferences": {}
}